{
  "_format": "hh-sol-artifact-1",
  "contractName": "UniswapV3Swap",
  "sourceName": "contracts/Uniswapv3Swap.sol",
  "abi": [
    {
      "inputs": [],
      "stateMutability": "nonpayable",
      "type": "constructor"
    },
    {
      "anonymous": false,
      "inputs": [
        {
          "indexed": true,
          "internalType": "address",
          "name": "previousOwner",
          "type": "address"
        },
        {
          "indexed": true,
          "internalType": "address",
          "name": "newOwner",
          "type": "address"
        }
      ],
      "name": "OwnershipTransferred",
      "type": "event"
    },
    {
      "inputs": [],
      "name": "DAI",
      "outputs": [
        {
          "internalType": "address",
          "name": "",
          "type": "address"
        }
      ],
      "stateMutability": "view",
      "type": "function"
    },
    {
      "inputs": [],
      "name": "SWAP_ROUTER_ADDRESS",
      "outputs": [
        {
          "internalType": "address",
          "name": "",
          "type": "address"
        }
      ],
      "stateMutability": "view",
      "type": "function"
    },
    {
      "inputs": [],
      "name": "WETH9",
      "outputs": [
        {
          "internalType": "address",
          "name": "",
          "type": "address"
        }
      ],
      "stateMutability": "view",
      "type": "function"
    },
    {
      "inputs": [],
      "name": "owner",
      "outputs": [
        {
          "internalType": "address",
          "name": "",
          "type": "address"
        }
      ],
      "stateMutability": "view",
      "type": "function"
    },
    {
      "inputs": [],
      "name": "renounceOwnership",
      "outputs": [],
      "stateMutability": "nonpayable",
      "type": "function"
    },
    {
      "inputs": [
        {
          "internalType": "uint256",
          "name": "amountIn",
          "type": "uint256"
        }
      ],
      "name": "swapExactInputSingle",
      "outputs": [
        {
          "internalType": "uint256",
          "name": "amountOut",
          "type": "uint256"
        }
      ],
      "stateMutability": "nonpayable",
      "type": "function"
    },
    {
      "inputs": [],
      "name": "swapRouter",
      "outputs": [
        {
          "internalType": "contract ISwapRouter",
          "name": "",
          "type": "address"
        }
      ],
      "stateMutability": "view",
      "type": "function"
    },
    {
      "inputs": [
        {
          "internalType": "address",
          "name": "newOwner",
          "type": "address"
        }
      ],
      "name": "transferOwnership",
      "outputs": [],
      "stateMutability": "nonpayable",
      "type": "function"
    }
  ],
  "bytecode": "0x60a060405234801561001057600080fd5b50600061002161010f60201b60201c565b9050806000806101000a81548173ffffffffffffffffffffffffffffffffffffffff021916908373ffffffffffffffffffffffffffffffffffffffff1602179055508073ffffffffffffffffffffffffffffffffffffffff16600073ffffffffffffffffffffffffffffffffffffffff167f8be0079c531659141344cd1fd0a4f28419497f9722a3daafe3b4186f6b6457e060405160405180910390a35073e592427a0aece92de3edee1f18e0157c0586156473ffffffffffffffffffffffffffffffffffffffff1660808173ffffffffffffffffffffffffffffffffffffffff1660601b81525050610117565b600033905090565b60805160601c610c8b61013e600039806103d6528061053252806106265250610c8b6000f3fe608060405234801561001057600080fd5b50600436106100885760003560e01c80639194da631161005b5780639194da6314610103578063c31c9c0714610121578063e0bab4c41461013f578063f2fde38b1461015d57610088565b80634aa4a4fc1461008d578063715018a6146100ab57806373bd43ad146100b55780638da5cb5b146100e5575b600080fd5b610095610179565b6040516100a29190610a6c565b60405180910390f35b6100b3610191565b005b6100cf60048036038101906100ca9190610900565b6102fe565b6040516100dc9190610b1e565b60405180910390f35b6100ed6105e3565b6040516100fa9190610a6c565b60405180910390f35b61010b61060c565b6040516101189190610a6c565b60405180910390f35b610129610624565b6040516101369190610ae7565b60405180910390f35b610147610648565b6040516101549190610a6c565b60405180910390f35b610177600480360381019061017291906108ae565b610660565b005b7312c5946d3f5630115e200c9a8966c748e2608c3181565b610199610852565b73ffffffffffffffffffffffffffffffffffffffff166101b76105e3565b73ffffffffffffffffffffffffffffffffffffffff1614610240576040517f08c379a00000000000000000000000000000000000000000000000000000000081526004018080602001828103825260208152602001807f4f776e61626c653a2063616c6c6572206973206e6f7420746865206f776e657281525060200191505060405180910390fd5b600073ffffffffffffffffffffffffffffffffffffffff1660008054906101000a900473ffffffffffffffffffffffffffffffffffffffff1673ffffffffffffffffffffffffffffffffffffffff167f8be0079c531659141344cd1fd0a4f28419497f9722a3daafe3b4186f6b6457e060405160405180910390a360008060006101000a81548173ffffffffffffffffffffffffffffffffffffffff021916908373ffffffffffffffffffffffffffffffffffffffff160217905550565b60007312c5946d3f5630115e200c9a8966c748e2608c3173ffffffffffffffffffffffffffffffffffffffff166323b872dd3330856040518463ffffffff1660e01b815260040161035193929190610a87565b602060405180830381600087803b15801561036b57600080fd5b505af115801561037f573d6000803e3d6000fd5b505050506040513d601f19601f820116820180604052508101906103a391906108d7565b507312c5946d3f5630115e200c9a8966c748e2608c3173ffffffffffffffffffffffffffffffffffffffff1663095ea7b37f0000000000000000000000000000000000000000000000000000000000000000846040518363ffffffff1660e01b8152600401610413929190610abe565b602060405180830381600087803b15801561042d57600080fd5b505af1158015610441573d6000803e3d6000fd5b505050506040513d601f19601f8201168201806040525081019061046591906108d7565b5060006040518061010001604052807312c5946d3f5630115e200c9a8966c748e2608c3173ffffffffffffffffffffffffffffffffffffffff16815260200173da728149376e4bd403871a264209da98e2846a9273ffffffffffffffffffffffffffffffffffffffff168152602001610bb862ffffff1681526020013373ffffffffffffffffffffffffffffffffffffffff168152602001600f4201815260200184815260200160008152602001600073ffffffffffffffffffffffffffffffffffffffff1681525090507f000000000000000000000000000000000000000000000000000000000000000073ffffffffffffffffffffffffffffffffffffffff1663414bf389826040518263ffffffff1660e01b81526004016105899190610b02565b602060405180830381600087803b1580156105a357600080fd5b505af11580156105b7573d6000803e3d6000fd5b505050506040513d601f19601f820116820180604052508101906105db9190610929565b915050919050565b60008060009054906101000a900473ffffffffffffffffffffffffffffffffffffffff16905090565b73e592427a0aece92de3edee1f18e0157c0586156481565b7f000000000000000000000000000000000000000000000000000000000000000081565b73da728149376e4bd403871a264209da98e2846a9281565b610668610852565b73ffffffffffffffffffffffffffffffffffffffff166106866105e3565b73ffffffffffffffffffffffffffffffffffffffff161461070f576040517f08c379a00000000000000000000000000000000000000000000000000000000081526004018080602001828103825260208152602001807f4f776e61626c653a2063616c6c6572206973206e6f7420746865206f776e657281525060200191505060405180910390fd5b600073ffffffffffffffffffffffffffffffffffffffff168173ffffffffffffffffffffffffffffffffffffffff161415610795576040517f08c379a0000000000000000000000000000000000000000000000000000000008152600401808060200182810382526026815260200180610c306026913960400191505060405180910390fd5b8073ffffffffffffffffffffffffffffffffffffffff1660008054906101000a900473ffffffffffffffffffffffffffffffffffffffff1673ffffffffffffffffffffffffffffffffffffffff167f8be0079c531659141344cd1fd0a4f28419497f9722a3daafe3b4186f6b6457e060405160405180910390a3806000806101000a81548173ffffffffffffffffffffffffffffffffffffffff021916908373ffffffffffffffffffffffffffffffffffffffff16021790555050565b600033905090565b60008135905061086981610bea565b92915050565b60008151905061087e81610c01565b92915050565b60008135905061089381610c18565b92915050565b6000815190506108a881610c18565b92915050565b6000602082840312156108c057600080fd5b60006108ce8482850161085a565b91505092915050565b6000602082840312156108e957600080fd5b60006108f78482850161086f565b91505092915050565b60006020828403121561091257600080fd5b600061092084828501610884565b91505092915050565b60006020828403121561093b57600080fd5b600061094984828501610899565b91505092915050565b61095b81610b90565b82525050565b61096a81610b39565b82525050565b61097981610b39565b82525050565b61098881610ba2565b82525050565b610100820160008201516109a56000850182610961565b5060208201516109b86020850182610961565b5060408201516109cb6040850182610a3f565b5060608201516109de6060850182610961565b5060808201516109f16080850182610a4e565b5060a0820151610a0460a0850182610a4e565b5060c0820151610a1760c0850182610a4e565b5060e0820151610a2a60e0850182610a30565b50505050565b610a3981610b57565b82525050565b610a4881610b77565b82525050565b610a5781610b86565b82525050565b610a6681610b86565b82525050565b6000602082019050610a816000830184610970565b92915050565b6000606082019050610a9c6000830186610952565b610aa96020830185610970565b610ab66040830184610a5d565b949350505050565b6000604082019050610ad36000830185610970565b610ae06020830184610a5d565b9392505050565b6000602082019050610afc600083018461097f565b92915050565b600061010082019050610b18600083018461098e565b92915050565b6000602082019050610b336000830184610a5d565b92915050565b6000610b4482610b57565b9050919050565b60008115159050919050565b600073ffffffffffffffffffffffffffffffffffffffff82169050919050565b600062ffffff82169050919050565b6000819050919050565b6000610b9b82610bc6565b9050919050565b6000610bad82610bb4565b9050919050565b6000610bbf82610b57565b9050919050565b6000610bd182610bd8565b9050919050565b6000610be382610b57565b9050919050565b610bf381610b39565b8114610bfe57600080fd5b50565b610c0a81610b4b565b8114610c1557600080fd5b50565b610c2181610b86565b8114610c2c57600080fd5b5056fe4f776e61626c653a206e6577206f776e657220697320746865207a65726f2061646472657373a26469706673582212200298d62d147a4f5ea915254a19f2efc9a35c7a79ab3df626ac4661389282032664736f6c63430007060033",
  "linkReferences": {},
  "deployedLinkReferences": {}
}