{
  "_format": "hh-sol-artifact-1",
  "contractName": "ETFSwapper",
  "sourceName": "contracts/ETFSwapper.sol",
  "abi": [
    {
      "inputs": [
        {
          "internalType": "address",
          "name": "etfSwapRouter",
          "type": "address"
        }
      ],
      "stateMutability": "nonpayable",
      "type": "constructor"
    },
    {
      "anonymous": false,
      "inputs": [
        {
          "indexed": true,
          "internalType": "address",
          "name": "token0",
          "type": "address"
        },
        {
          "indexed": true,
          "internalType": "address",
          "name": "token1",
          "type": "address"
        },
        {
          "indexed": false,
          "internalType": "uint256",
          "name": "amountIn",
          "type": "uint256"
        },
        {
          "indexed": false,
          "internalType": "uint256",
          "name": "amountOut",
          "type": "uint256"
        }
      ],
      "name": "MultiSwapForGivenInput",
      "type": "event"
    },
    {
      "anonymous": false,
      "inputs": [
        {
          "indexed": true,
          "internalType": "address",
          "name": "token0",
          "type": "address"
        },
        {
          "indexed": true,
          "internalType": "address",
          "name": "token1",
          "type": "address"
        },
        {
          "indexed": false,
          "internalType": "uint256",
          "name": "amountIn",
          "type": "uint256"
        },
        {
          "indexed": false,
          "internalType": "uint256",
          "name": "amountOut",
          "type": "uint256"
        }
      ],
      "name": "MultiSwapForGivenOutput",
      "type": "event"
    },
    {
      "anonymous": false,
      "inputs": [
        {
          "indexed": true,
          "internalType": "address",
          "name": "token1",
          "type": "address"
        },
        {
          "indexed": true,
          "internalType": "address",
          "name": "token2",
          "type": "address"
        },
        {
          "indexed": false,
          "internalType": "uint256",
          "name": "amountIn",
          "type": "uint256"
        },
        {
          "indexed": false,
          "internalType": "uint256",
          "name": "amountOut",
          "type": "uint256"
        }
      ],
      "name": "SwapForGivenInput",
      "type": "event"
    },
    {
      "anonymous": false,
      "inputs": [
        {
          "indexed": true,
          "internalType": "address",
          "name": "token1",
          "type": "address"
        },
        {
          "indexed": true,
          "internalType": "address",
          "name": "token2",
          "type": "address"
        },
        {
          "indexed": false,
          "internalType": "uint256",
          "name": "amountIn",
          "type": "uint256"
        },
        {
          "indexed": false,
          "internalType": "uint256",
          "name": "amountOut",
          "type": "uint256"
        }
      ],
      "name": "SwapForGivenOutput",
      "type": "event"
    },
    {
      "inputs": [
        {
          "internalType": "address",
          "name": "token0",
          "type": "address"
        },
        {
          "internalType": "address",
          "name": "token1",
          "type": "address"
        },
        {
          "internalType": "uint256",
          "name": "amountIn",
          "type": "uint256"
        },
        {
          "internalType": "uint24",
          "name": "fee",
          "type": "uint24"
        },
        {
          "internalType": "uint256",
          "name": "deadline",
          "type": "uint256"
        }
      ],
      "name": "multiSwapForGivenInput",
      "outputs": [
        {
          "internalType": "uint256",
          "name": "amountOut",
          "type": "uint256"
        }
      ],
      "stateMutability": "nonpayable",
      "type": "function"
    },
    {
      "inputs": [
        {
          "internalType": "address",
          "name": "token0",
          "type": "address"
        },
        {
          "internalType": "address",
          "name": "token1",
          "type": "address"
        },
        {
          "internalType": "uint256",
          "name": "amountOut",
          "type": "uint256"
        },
        {
          "internalType": "uint256",
          "name": "amountInMaximum",
          "type": "uint256"
        },
        {
          "internalType": "uint256",
          "name": "deadline",
          "type": "uint256"
        }
      ],
      "name": "multiSwapForGivenOutput",
      "outputs": [
        {
          "internalType": "uint256",
          "name": "amountIn",
          "type": "uint256"
        }
      ],
      "stateMutability": "nonpayable",
      "type": "function"
    },
    {
      "inputs": [
        {
          "internalType": "address",
          "name": "token1",
          "type": "address"
        },
        {
          "internalType": "address",
          "name": "token2",
          "type": "address"
        },
        {
          "internalType": "uint256",
          "name": "amountIn",
          "type": "uint256"
        },
        {
          "internalType": "uint24",
          "name": "fee",
          "type": "uint24"
        },
        {
          "internalType": "uint256",
          "name": "deadline",
          "type": "uint256"
        }
      ],
      "name": "swapForGivenInput",
      "outputs": [
        {
          "internalType": "uint256",
          "name": "amountOut",
          "type": "uint256"
        }
      ],
      "stateMutability": "nonpayable",
      "type": "function"
    },
    {
      "inputs": [
        {
          "internalType": "address",
          "name": "token1",
          "type": "address"
        },
        {
          "internalType": "address",
          "name": "token2",
          "type": "address"
        },
        {
          "internalType": "uint256",
          "name": "amountOut",
          "type": "uint256"
        },
        {
          "internalType": "uint256",
          "name": "amountInMaximum",
          "type": "uint256"
        },
        {
          "internalType": "uint256",
          "name": "deadline",
          "type": "uint256"
        }
      ],
      "name": "swapForGivenOutput",
      "outputs": [
        {
          "internalType": "uint256",
          "name": "amountIn",
          "type": "uint256"
        }
      ],
      "stateMutability": "nonpayable",
      "type": "function"
    },
    {
      "inputs": [],
      "name": "swapRouter",
      "outputs": [
        {
          "internalType": "contract ISwapRouter",
          "name": "",
          "type": "address"
        }
      ],
      "stateMutability": "view",
      "type": "function"
    }
  ],
  "bytecode": "0x60a06040523480156200001157600080fd5b50604051620019433803806200194383398181016040528101906200003791906200008c565b8073ffffffffffffffffffffffffffffffffffffffff1660808173ffffffffffffffffffffffffffffffffffffffff1660601b815250505062000106565b6000815190506200008681620000ec565b92915050565b6000602082840312156200009f57600080fd5b6000620000af8482850162000075565b91505092915050565b6000620000c582620000cc565b9050919050565b600073ffffffffffffffffffffffffffffffffffffffff82169050919050565b620000f781620000b8565b81146200010357600080fd5b50565b60805160601c6117ed6200015660003980610190528061021d52806102d652806103d1528061045d528061057b52806105f352806106b7528061082952806108ee52806109a752506117ed6000f3fe608060405234801561001057600080fd5b50600436106100575760003560e01c80630b0f8a961461005c5780631abe01fd1461008c578063c31c9c07146100bc578063ce8607dc146100da578063d242c61b1461010a575b600080fd5b61007660048036038101906100719190611139565b61013a565b60405161008391906115fe565b60405180910390f35b6100a660048036038101906100a191906110c2565b61037b565b6040516100b391906115fe565b60405180910390f35b6100c4610579565b6040516100d19190611547565b60405180910390f35b6100f460048036038101906100ef91906110c2565b61059d565b60405161010191906115fe565b60405180910390f35b610124600480360381019061011f9190611139565b6107d3565b60405161013191906115fe565b60405180910390f35b600042821161017e576040517f08c379a000000000000000000000000000000000000000000000000000000000815260040161017590611562565b60405180910390fd5b61018a86333086610a4c565b6101b5867f000000000000000000000000000000000000000000000000000000000000000085610c6c565b60006040518060a0016040528088610bb8896040516020016101d99392919061150a565b60405160208183030381529060405281526020013373ffffffffffffffffffffffffffffffffffffffff1681526020018481526020018681526020018581525090507f000000000000000000000000000000000000000000000000000000000000000073ffffffffffffffffffffffffffffffffffffffff1663f28c0498826040518263ffffffff1660e01b815260040161027491906115c0565b602060405180830381600087803b15801561028e57600080fd5b505af11580156102a2573d6000803e3d6000fd5b505050506040513d601f19601f820116820180604052508101906102c691906111b0565b91508382101561030a576102fc877f00000000000000000000000000000000000000000000000000000000000000006000610c6c565b6103098733848703610e6d565b5b8573ffffffffffffffffffffffffffffffffffffffff168773ffffffffffffffffffffffffffffffffffffffff167f145f932acf759d753e3dfd54df68728571b050267aec3f88eb5f845e7856cbd88488604051610369929190611619565b60405180910390a35095945050505050565b60004282116103bf576040517f08c379a00000000000000000000000000000000000000000000000000000000081526004016103b690611562565b60405180910390fd5b6103cb86333087610a4c565b6103f6867f000000000000000000000000000000000000000000000000000000000000000086610c6c565b60006040518060a001604052808886896040516020016104189392919061150a565b60405160208183030381529060405281526020013373ffffffffffffffffffffffffffffffffffffffff168152602001848152602001868152602001600081525090507f000000000000000000000000000000000000000000000000000000000000000073ffffffffffffffffffffffffffffffffffffffff1663c04b8d59826040518263ffffffff1660e01b81526004016104b49190611582565b602060405180830381600087803b1580156104ce57600080fd5b505af11580156104e2573d6000803e3d6000fd5b505050506040513d601f19601f8201168201806040525081019061050691906111b0565b91508573ffffffffffffffffffffffffffffffffffffffff168773ffffffffffffffffffffffffffffffffffffffff167f17b67d480358e33e938e0940630fe53769ca7064e70f6870c0b5aa0ac6a163498785604051610567929190611619565b60405180910390a35095945050505050565b7f000000000000000000000000000000000000000000000000000000000000000081565b60004282116105e1576040517f08c379a00000000000000000000000000000000000000000000000000000000081526004016105d890611562565b60405180910390fd5b6105ed86333087610a4c565b610618867f000000000000000000000000000000000000000000000000000000000000000086610c6c565b60006040518061010001604052808873ffffffffffffffffffffffffffffffffffffffff1681526020018773ffffffffffffffffffffffffffffffffffffffff1681526020018562ffffff1681526020013373ffffffffffffffffffffffffffffffffffffffff16815260200184815260200186815260200160008152602001600073ffffffffffffffffffffffffffffffffffffffff1681525090507f000000000000000000000000000000000000000000000000000000000000000073ffffffffffffffffffffffffffffffffffffffff1663414bf389826040518263ffffffff1660e01b815260040161070e91906115a4565b602060405180830381600087803b15801561072857600080fd5b505af115801561073c573d6000803e3d6000fd5b505050506040513d601f19601f8201168201806040525081019061076091906111b0565b91508573ffffffffffffffffffffffffffffffffffffffff168773ffffffffffffffffffffffffffffffffffffffff167f144e564ec41cfc8c150abd162868ced8c89af5c67f7475e9fd67c5af8cafbe5987856040516107c1929190611619565b60405180910390a35095945050505050565b6000428211610817576040517f08c379a000000000000000000000000000000000000000000000000000000000815260040161080e90611562565b60405180910390fd5b61082386333086610a4c565b61084e867f000000000000000000000000000000000000000000000000000000000000000085610c6c565b60006040518061010001604052808873ffffffffffffffffffffffffffffffffffffffff1681526020018773ffffffffffffffffffffffffffffffffffffffff168152602001610bb862ffffff1681526020013373ffffffffffffffffffffffffffffffffffffffff168152602001848152602001868152602001858152602001600073ffffffffffffffffffffffffffffffffffffffff1681525090507f000000000000000000000000000000000000000000000000000000000000000073ffffffffffffffffffffffffffffffffffffffff1663db3e2198826040518263ffffffff1660e01b815260040161094591906115e2565b602060405180830381600087803b15801561095f57600080fd5b505af1158015610973573d6000803e3d6000fd5b505050506040513d601f19601f8201168201806040525081019061099791906111b0565b9150838210156109db576109cd877f00000000000000000000000000000000000000000000000000000000000000006000610c6c565b6109da8733848703610e6d565b5b8573ffffffffffffffffffffffffffffffffffffffff168773ffffffffffffffffffffffffffffffffffffffff167f42dd6c119bdff4899879a0084f602951e33612793043142fcbfea516090ada8f8488604051610a3a929190611619565b60405180910390a35095945050505050565b6000808573ffffffffffffffffffffffffffffffffffffffff166323b872dd60e01b868686604051602401808473ffffffffffffffffffffffffffffffffffffffff1681526020018373ffffffffffffffffffffffffffffffffffffffff1681526020018281526020019350505050604051602081830303815290604052907bffffffffffffffffffffffffffffffffffffffffffffffffffffffff19166020820180517bffffffffffffffffffffffffffffffffffffffffffffffffffffffff83818316178352505050506040518082805190602001908083835b60208310610b4b5780518252602082019150602081019050602083039250610b28565b6001836020036101000a0380198251168184511680821785525050505050509050019150506000604051808303816000865af19150503d8060008114610bad576040519150601f19603f3d011682016040523d82523d6000602084013e610bb2565b606091505b5091509150818015610bf25750600081511480610bf15750808060200190516020811015610bdf57600080fd5b81019080805190602001909291905050505b5b610c64576040517f08c379a00000000000000000000000000000000000000000000000000000000081526004018080602001828103825260038152602001807f535446000000000000000000000000000000000000000000000000000000000081525060200191505060405180910390fd5b505050505050565b6000808473ffffffffffffffffffffffffffffffffffffffff1663095ea7b360e01b8585604051602401808373ffffffffffffffffffffffffffffffffffffffff16815260200182815260200192505050604051602081830303815290604052907bffffffffffffffffffffffffffffffffffffffffffffffffffffffff19166020820180517bffffffffffffffffffffffffffffffffffffffffffffffffffffffff83818316178352505050506040518082805190602001908083835b60208310610d4d5780518252602082019150602081019050602083039250610d2a565b6001836020036101000a0380198251168184511680821785525050505050509050019150506000604051808303816000865af19150503d8060008114610daf576040519150601f19603f3d011682016040523d82523d6000602084013e610db4565b606091505b5091509150818015610df45750600081511480610df35750808060200190516020811015610de157600080fd5b81019080805190602001909291905050505b5b610e66576040517f08c379a00000000000000000000000000000000000000000000000000000000081526004018080602001828103825260028152602001807f534100000000000000000000000000000000000000000000000000000000000081525060200191505060405180910390fd5b5050505050565b6000808473ffffffffffffffffffffffffffffffffffffffff1663a9059cbb60e01b8585604051602401808373ffffffffffffffffffffffffffffffffffffffff16815260200182815260200192505050604051602081830303815290604052907bffffffffffffffffffffffffffffffffffffffffffffffffffffffff19166020820180517bffffffffffffffffffffffffffffffffffffffffffffffffffffffff83818316178352505050506040518082805190602001908083835b60208310610f4e5780518252602082019150602081019050602083039250610f2b565b6001836020036101000a0380198251168184511680821785525050505050509050019150506000604051808303816000865af19150503d8060008114610fb0576040519150601f19603f3d011682016040523d82523d6000602084013e610fb5565b606091505b5091509150818015610ff55750600081511480610ff45750808060200190516020811015610fe257600080fd5b81019080805190602001909291905050505b5b611067576040517f08c379a00000000000000000000000000000000000000000000000000000000081526004018080602001828103825260028152602001807f535400000000000000000000000000000000000000000000000000000000000081525060200191505060405180910390fd5b5050505050565b60008135905061107d81611772565b92915050565b60008135905061109281611789565b92915050565b6000813590506110a7816117a0565b92915050565b6000815190506110bc816117a0565b92915050565b600080600080600060a086880312156110da57600080fd5b60006110e88882890161106e565b95505060206110f98882890161106e565b945050604061110a88828901611098565b935050606061111b88828901611083565b925050608061112c88828901611098565b9150509295509295909350565b600080600080600060a0868803121561115157600080fd5b600061115f8882890161106e565b95505060206111708882890161106e565b945050604061118188828901611098565b935050606061119288828901611098565b92505060806111a388828901611098565b9150509295509295909350565b6000602082840312156111c257600080fd5b60006111d0848285016110ad565b91505092915050565b6111e28161166f565b82525050565b6111f96111f48261166f565b611711565b82525050565b600061120a82611642565b611214818561164d565b93506112248185602086016116de565b61122d81611747565b840191505092915050565b611241816116ba565b82525050565b6000611254601b8361165e565b91507f455446537761707065723a20446561646c696e652070617373656400000000006000830152602082019050919050565b600060a08301600083015184820360008601526112a482826111ff565b91505060208301516112b960208601826111d9565b5060408301516112cc60408601826114ec565b5060608301516112df60608601826114ec565b5060808301516112f260808601826114ec565b508091505092915050565b6101008201600082015161131460008501826111d9565b50602082015161132760208501826111d9565b50604082015161133a60408501826114c6565b50606082015161134d60608501826111d9565b50608082015161136060808501826114ec565b5060a082015161137360a08501826114ec565b5060c082015161138660c08501826114ec565b5060e082015161139960e08501826114b7565b50505050565b600060a08301600083015184820360008601526113bc82826111ff565b91505060208301516113d160208601826111d9565b5060408301516113e460408601826114ec565b5060608301516113f760608601826114ec565b50608083015161140a60808601826114ec565b508091505092915050565b6101008201600082015161142c60008501826111d9565b50602082015161143f60208501826111d9565b50604082015161145260408501826114c6565b50606082015161146560608501826111d9565b50608082015161147860808501826114ec565b5060a082015161148b60a08501826114ec565b5060c082015161149e60c08501826114ec565b5060e08201516114b160e08501826114b7565b50505050565b6114c081611681565b82525050565b6114cf816116a1565b82525050565b6114e66114e1826116a1565b611735565b82525050565b6114f5816116b0565b82525050565b611504816116b0565b82525050565b600061151682866111e8565b60148201915061152682856114d5565b60038201915061153682846111e8565b601482019150819050949350505050565b600060208201905061155c6000830184611238565b92915050565b6000602082019050818103600083015261157b81611247565b9050919050565b6000602082019050818103600083015261159c8184611287565b905092915050565b6000610100820190506115ba60008301846112fd565b92915050565b600060208201905081810360008301526115da818461139f565b905092915050565b6000610100820190506115f86000830184611415565b92915050565b600060208201905061161360008301846114fb565b92915050565b600060408201905061162e60008301856114fb565b61163b60208301846114fb565b9392505050565b600081519050919050565b600082825260208201905092915050565b600082825260208201905092915050565b600061167a82611681565b9050919050565b600073ffffffffffffffffffffffffffffffffffffffff82169050919050565b600062ffffff82169050919050565b6000819050919050565b60006116c5826116cc565b9050919050565b60006116d782611681565b9050919050565b60005b838110156116fc5780820151818401526020810190506116e1565b8381111561170b576000848401525b50505050565b600061171c82611723565b9050919050565b600061172e82611765565b9050919050565b600061174082611758565b9050919050565b6000601f19601f8301169050919050565b60008160e81b9050919050565b60008160601b9050919050565b61177b8161166f565b811461178657600080fd5b50565b611792816116a1565b811461179d57600080fd5b50565b6117a9816116b0565b81146117b457600080fd5b5056fea26469706673582212207fce5ee54345bff4720e6b097fc377cc7299aca82b1c0fdee73994b9e774c48064736f6c63430007060033",
  "linkReferences": {},
  "deployedLinkReferences": {}
}