{
  "_format": "hh-sol-artifact-1",
  "contractName": "ETFSwap",
  "sourceName": "contracts/ETFSwap.sol",
  "abi": [
    {
      "inputs": [],
      "stateMutability": "nonpayable",
      "type": "constructor"
    },
    {
      "inputs": [
        {
          "internalType": "address",
          "name": "",
          "type": "address"
        },
        {
          "internalType": "bool",
          "name": "",
          "type": "bool"
        }
      ],
      "name": "AlreadyAPairAddress",
      "type": "error"
    },
    {
      "inputs": [
        {
          "internalType": "uint256",
          "name": "",
          "type": "uint256"
        }
      ],
      "name": "AlreadyWalletLimit",
      "type": "error"
    },
    {
      "inputs": [
        {
          "internalType": "bool",
          "name": "",
          "type": "bool"
        }
      ],
      "name": "AlreadyWalletsLimitEnabled",
      "type": "error"
    },
    {
      "inputs": [],
      "name": "EtherAmountMustBeGreaterThanZero",
      "type": "error"
    },
    {
      "inputs": [
        {
          "internalType": "uint256",
          "name": "requested",
          "type": "uint256"
        },
        {
          "internalType": "uint256",
          "name": "available",
          "type": "uint256"
        }
      ],
      "name": "InsufficientBalance",
      "type": "error"
    },
    {
      "inputs": [
        {
          "internalType": "uint256",
          "name": "requested",
          "type": "uint256"
        },
        {
          "internalType": "uint256",
          "name": "available",
          "type": "uint256"
        }
      ],
      "name": "InsufficientContractETHBalance",
      "type": "error"
    },
    {
      "inputs": [
        {
          "internalType": "uint256",
          "name": "requested",
          "type": "uint256"
        },
        {
          "internalType": "uint256",
          "name": "available",
          "type": "uint256"
        }
      ],
      "name": "InsufficientContractTokenBalance",
      "type": "error"
    },
    {
      "inputs": [
        {
          "internalType": "uint256",
          "name": "requested",
          "type": "uint256"
        },
        {
          "internalType": "uint256",
          "name": "available",
          "type": "uint256"
        }
      ],
      "name": "InsufficientTokens",
      "type": "error"
    },
    {
      "inputs": [],
      "name": "InvalidShortString",
      "type": "error"
    },
    {
      "inputs": [
        {
          "internalType": "uint256",
          "name": "requested",
          "type": "uint256"
        },
        {
          "internalType": "uint256",
          "name": "available",
          "type": "uint256"
        }
      ],
      "name": "MaxTotalSupplyExceeded",
      "type": "error"
    },
    {
      "inputs": [
        {
          "internalType": "string",
          "name": "str",
          "type": "string"
        }
      ],
      "name": "StringTooLong",
      "type": "error"
    },
    {
      "inputs": [],
      "name": "TransferFailed",
      "type": "error"
    },
    {
      "inputs": [],
      "name": "WalletLimitZero",
      "type": "error"
    },
    {
      "anonymous": false,
      "inputs": [
        {
          "indexed": true,
          "internalType": "address",
          "name": "owner",
          "type": "address"
        },
        {
          "indexed": true,
          "internalType": "address",
          "name": "spender",
          "type": "address"
        },
        {
          "indexed": false,
          "internalType": "uint256",
          "name": "value",
          "type": "uint256"
        }
      ],
      "name": "Approval",
      "type": "event"
    },
    {
      "anonymous": false,
      "inputs": [],
      "name": "EIP712DomainChanged",
      "type": "event"
    },
    {
      "anonymous": false,
      "inputs": [
        {
          "indexed": true,
          "internalType": "address",
          "name": "previousOwner",
          "type": "address"
        },
        {
          "indexed": true,
          "internalType": "address",
          "name": "newOwner",
          "type": "address"
        }
      ],
      "name": "OwnershipTransferred",
      "type": "event"
    },
    {
      "anonymous": false,
      "inputs": [
        {
          "indexed": false,
          "internalType": "address",
          "name": "",
          "type": "address"
        },
        {
          "indexed": false,
          "internalType": "bool",
          "name": "",
          "type": "bool"
        }
      ],
      "name": "PairAddressCreated",
      "type": "event"
    },
    {
      "anonymous": false,
      "inputs": [
        {
          "indexed": false,
          "internalType": "address",
          "name": "",
          "type": "address"
        },
        {
          "indexed": false,
          "internalType": "uint256",
          "name": "",
          "type": "uint256"
        }
      ],
      "name": "Received",
      "type": "event"
    },
    {
      "anonymous": false,
      "inputs": [
        {
          "indexed": true,
          "internalType": "address",
          "name": "from",
          "type": "address"
        },
        {
          "indexed": true,
          "internalType": "address",
          "name": "to",
          "type": "address"
        },
        {
          "indexed": false,
          "internalType": "uint256",
          "name": "value",
          "type": "uint256"
        }
      ],
      "name": "Transfer",
      "type": "event"
    },
    {
      "anonymous": false,
      "inputs": [
        {
          "indexed": false,
          "internalType": "uint256",
          "name": "",
          "type": "uint256"
        }
      ],
      "name": "WalletLimit",
      "type": "event"
    },
    {
      "anonymous": false,
      "inputs": [
        {
          "indexed": false,
          "internalType": "address",
          "name": "",
          "type": "address"
        },
        {
          "indexed": false,
          "internalType": "bool",
          "name": "",
          "type": "bool"
        }
      ],
      "name": "WalletLimitUnlimited",
      "type": "event"
    },
    {
      "anonymous": false,
      "inputs": [
        {
          "indexed": false,
          "internalType": "bool",
          "name": "",
          "type": "bool"
        }
      ],
      "name": "WalletsLimitEnabled",
      "type": "event"
    },
    {
      "stateMutability": "payable",
      "type": "fallback"
    },
    {
      "inputs": [],
      "name": "DOMAIN_SEPARATOR",
      "outputs": [
        {
          "internalType": "bytes32",
          "name": "",
          "type": "bytes32"
        }
      ],
      "stateMutability": "view",
      "type": "function"
    },
    {
      "inputs": [],
      "name": "MAX_TOKENS_PER_ADDRESS",
      "outputs": [
        {
          "internalType": "uint256",
          "name": "",
          "type": "uint256"
        }
      ],
      "stateMutability": "view",
      "type": "function"
    },
    {
      "inputs": [],
      "name": "MAX_TOTAL_SUPPLY",
      "outputs": [
        {
          "internalType": "uint256",
          "name": "",
          "type": "uint256"
        }
      ],
      "stateMutability": "view",
      "type": "function"
    },
    {
      "inputs": [
        {
          "internalType": "uint256",
          "name": "tokenAmount",
          "type": "uint256"
        },
        {
          "internalType": "uint256",
          "name": "ethAmount",
          "type": "uint256"
        }
      ],
      "name": "addLiquidityToUniswap",
      "outputs": [],
      "stateMutability": "nonpayable",
      "type": "function"
    },
    {
      "inputs": [
        {
          "internalType": "address",
          "name": "owner",
          "type": "address"
        },
        {
          "internalType": "address",
          "name": "spender",
          "type": "address"
        }
      ],
      "name": "allowance",
      "outputs": [
        {
          "internalType": "uint256",
          "name": "",
          "type": "uint256"
        }
      ],
      "stateMutability": "view",
      "type": "function"
    },
    {
      "inputs": [
        {
          "internalType": "address",
          "name": "",
          "type": "address"
        },
        {
          "internalType": "address",
          "name": "",
          "type": "address"
        }
      ],
      "name": "allowances",
      "outputs": [
        {
          "internalType": "uint256",
          "name": "",
          "type": "uint256"
        }
      ],
      "stateMutability": "view",
      "type": "function"
    },
    {
      "inputs": [
        {
          "internalType": "address",
          "name": "spender",
          "type": "address"
        },
        {
          "internalType": "uint256",
          "name": "amount",
          "type": "uint256"
        }
      ],
      "name": "approve",
      "outputs": [
        {
          "internalType": "bool",
          "name": "",
          "type": "bool"
        }
      ],
      "stateMutability": "nonpayable",
      "type": "function"
    },
    {
      "inputs": [
        {
          "internalType": "address",
          "name": "account",
          "type": "address"
        }
      ],
      "name": "balanceOf",
      "outputs": [
        {
          "internalType": "uint256",
          "name": "",
          "type": "uint256"
        }
      ],
      "stateMutability": "view",
      "type": "function"
    },
    {
      "inputs": [
        {
          "internalType": "address",
          "name": "",
          "type": "address"
        }
      ],
      "name": "balances",
      "outputs": [
        {
          "internalType": "uint256",
          "name": "",
          "type": "uint256"
        }
      ],
      "stateMutability": "view",
      "type": "function"
    },
    {
      "inputs": [
        {
          "internalType": "uint256",
          "name": "amount",
          "type": "uint256"
        }
      ],
      "name": "burn",
      "outputs": [],
      "stateMutability": "nonpayable",
      "type": "function"
    },
    {
      "inputs": [
        {
          "internalType": "uint256",
          "name": "amountOfETFSwapToBurn",
          "type": "uint256"
        }
      ],
      "name": "burnETFSwap",
      "outputs": [],
      "stateMutability": "nonpayable",
      "type": "function"
    },
    {
      "inputs": [
        {
          "internalType": "address",
          "name": "account",
          "type": "address"
        },
        {
          "internalType": "uint256",
          "name": "amount",
          "type": "uint256"
        }
      ],
      "name": "burnFrom",
      "outputs": [],
      "stateMutability": "nonpayable",
      "type": "function"
    },
    {
      "inputs": [],
      "name": "cashBackReservesTokenWallet",
      "outputs": [
        {
          "internalType": "address payable",
          "name": "",
          "type": "address"
        }
      ],
      "stateMutability": "view",
      "type": "function"
    },
    {
      "inputs": [],
      "name": "cummunityRewardsTokenWallet",
      "outputs": [
        {
          "internalType": "address payable",
          "name": "",
          "type": "address"
        }
      ],
      "stateMutability": "view",
      "type": "function"
    },
    {
      "inputs": [],
      "name": "decimals",
      "outputs": [
        {
          "internalType": "uint8",
          "name": "",
          "type": "uint8"
        }
      ],
      "stateMutability": "view",
      "type": "function"
    },
    {
      "inputs": [
        {
          "internalType": "address",
          "name": "spender",
          "type": "address"
        },
        {
          "internalType": "uint256",
          "name": "subtractedValue",
          "type": "uint256"
        }
      ],
      "name": "decreaseAllowance",
      "outputs": [
        {
          "internalType": "bool",
          "name": "",
          "type": "bool"
        }
      ],
      "stateMutability": "nonpayable",
      "type": "function"
    },
    {
      "inputs": [],
      "name": "devTokenWallet",
      "outputs": [
        {
          "internalType": "address payable",
          "name": "",
          "type": "address"
        }
      ],
      "stateMutability": "view",
      "type": "function"
    },
    {
      "inputs": [],
      "name": "ecosystemTokenWallet",
      "outputs": [
        {
          "internalType": "address payable",
          "name": "",
          "type": "address"
        }
      ],
      "stateMutability": "view",
      "type": "function"
    },
    {
      "inputs": [],
      "name": "eip712Domain",
      "outputs": [
        {
          "internalType": "bytes1",
          "name": "fields",
          "type": "bytes1"
        },
        {
          "internalType": "string",
          "name": "name",
          "type": "string"
        },
        {
          "internalType": "string",
          "name": "version",
          "type": "string"
        },
        {
          "internalType": "uint256",
          "name": "chainId",
          "type": "uint256"
        },
        {
          "internalType": "address",
          "name": "verifyingContract",
          "type": "address"
        },
        {
          "internalType": "bytes32",
          "name": "salt",
          "type": "bytes32"
        },
        {
          "internalType": "uint256[]",
          "name": "extensions",
          "type": "uint256[]"
        }
      ],
      "stateMutability": "view",
      "type": "function"
    },
    {
      "inputs": [
        {
          "internalType": "address",
          "name": "spender",
          "type": "address"
        },
        {
          "internalType": "uint256",
          "name": "addedValue",
          "type": "uint256"
        }
      ],
      "name": "increaseAllowance",
      "outputs": [
        {
          "internalType": "bool",
          "name": "",
          "type": "bool"
        }
      ],
      "stateMutability": "nonpayable",
      "type": "function"
    },
    {
      "inputs": [],
      "name": "isWalletsLimitEnabled",
      "outputs": [
        {
          "internalType": "bool",
          "name": "",
          "type": "bool"
        }
      ],
      "stateMutability": "view",
      "type": "function"
    },
    {
      "inputs": [],
      "name": "liquidityAndListingReservesTokenWallet",
      "outputs": [
        {
          "internalType": "address payable",
          "name": "",
          "type": "address"
        }
      ],
      "stateMutability": "view",
      "type": "function"
    },
    {
      "inputs": [],
      "name": "mMIncentivesKOLsTokenWallet",
      "outputs": [
        {
          "internalType": "address payable",
          "name": "",
          "type": "address"
        }
      ],
      "stateMutability": "view",
      "type": "function"
    },
    {
      "inputs": [],
      "name": "name",
      "outputs": [
        {
          "internalType": "string",
          "name": "",
          "type": "string"
        }
      ],
      "stateMutability": "view",
      "type": "function"
    },
    {
      "inputs": [
        {
          "internalType": "address",
          "name": "owner",
          "type": "address"
        }
      ],
      "name": "nonces",
      "outputs": [
        {
          "internalType": "uint256",
          "name": "",
          "type": "uint256"
        }
      ],
      "stateMutability": "view",
      "type": "function"
    },
    {
      "inputs": [],
      "name": "owner",
      "outputs": [
        {
          "internalType": "address",
          "name": "",
          "type": "address"
        }
      ],
      "stateMutability": "view",
      "type": "function"
    },
    {
      "inputs": [
        {
          "internalType": "address",
          "name": "",
          "type": "address"
        }
      ],
      "name": "pairAddress",
      "outputs": [
        {
          "internalType": "bool",
          "name": "",
          "type": "bool"
        }
      ],
      "stateMutability": "view",
      "type": "function"
    },
    {
      "inputs": [],
      "name": "partnersAndAdvisorsTokenWallet",
      "outputs": [
        {
          "internalType": "address payable",
          "name": "",
          "type": "address"
        }
      ],
      "stateMutability": "view",
      "type": "function"
    },
    {
      "inputs": [
        {
          "internalType": "address",
          "name": "owner",
          "type": "address"
        },
        {
          "internalType": "address",
          "name": "spender",
          "type": "address"
        },
        {
          "internalType": "uint256",
          "name": "value",
          "type": "uint256"
        },
        {
          "internalType": "uint256",
          "name": "deadline",
          "type": "uint256"
        },
        {
          "internalType": "uint8",
          "name": "v",
          "type": "uint8"
        },
        {
          "internalType": "bytes32",
          "name": "r",
          "type": "bytes32"
        },
        {
          "internalType": "bytes32",
          "name": "s",
          "type": "bytes32"
        }
      ],
      "name": "permit",
      "outputs": [],
      "stateMutability": "nonpayable",
      "type": "function"
    },
    {
      "inputs": [],
      "name": "presaleTokenWallet",
      "outputs": [
        {
          "internalType": "address payable",
          "name": "",
          "type": "address"
        }
      ],
      "stateMutability": "view",
      "type": "function"
    },
    {
      "inputs": [
        {
          "internalType": "uint256",
          "name": "renounceForTokens",
          "type": "uint256"
        }
      ],
      "name": "renounceETFSwapOwnership",
      "outputs": [],
      "stateMutability": "nonpayable",
      "type": "function"
    },
    {
      "inputs": [],
      "name": "renounceOwnership",
      "outputs": [],
      "stateMutability": "nonpayable",
      "type": "function"
    },
    {
      "inputs": [
        {
          "internalType": "address payable",
          "name": "newAddress",
          "type": "address"
        }
      ],
      "name": "setCashBackReservesTokenWallet",
      "outputs": [
        {
          "internalType": "address",
          "name": "",
          "type": "address"
        }
      ],
      "stateMutability": "nonpayable",
      "type": "function"
    },
    {
      "inputs": [
        {
          "internalType": "address payable",
          "name": "newAddress",
          "type": "address"
        }
      ],
      "name": "setCummunityRewardsTokenWallet",
      "outputs": [
        {
          "internalType": "address",
          "name": "",
          "type": "address"
        }
      ],
      "stateMutability": "nonpayable",
      "type": "function"
    },
    {
      "inputs": [
        {
          "internalType": "address payable",
          "name": "newAddress",
          "type": "address"
        }
      ],
      "name": "setDevTokenWallet",
      "outputs": [
        {
          "internalType": "address",
          "name": "",
          "type": "address"
        }
      ],
      "stateMutability": "nonpayable",
      "type": "function"
    },
    {
      "inputs": [
        {
          "internalType": "address payable",
          "name": "newAddress",
          "type": "address"
        }
      ],
      "name": "setEcosystemTokenWallet",
      "outputs": [
        {
          "internalType": "address",
          "name": "",
          "type": "address"
        }
      ],
      "stateMutability": "nonpayable",
      "type": "function"
    },
    {
      "inputs": [
        {
          "internalType": "bool",
          "name": "trueOrFalse",
          "type": "bool"
        }
      ],
      "name": "setIsWalletsLimitEnabled",
      "outputs": [],
      "stateMutability": "nonpayable",
      "type": "function"
    },
    {
      "inputs": [
        {
          "internalType": "address payable",
          "name": "newAddress",
          "type": "address"
        }
      ],
      "name": "setLiquidityAndListingReservesTokenWallet",
      "outputs": [
        {
          "internalType": "address",
          "name": "",
          "type": "address"
        }
      ],
      "stateMutability": "nonpayable",
      "type": "function"
    },
    {
      "inputs": [
        {
          "internalType": "address payable",
          "name": "newAddress",
          "type": "address"
        }
      ],
      "name": "setMMIncentivesKOLsTokenWallet",
      "outputs": [
        {
          "internalType": "address",
          "name": "",
          "type": "address"
        }
      ],
      "stateMutability": "nonpayable",
      "type": "function"
    },
    {
      "inputs": [
        {
          "internalType": "address",
          "name": "_pairAddress",
          "type": "address"
        },
        {
          "internalType": "bool",
          "name": "trueOrFalse",
          "type": "bool"
        }
      ],
      "name": "setPairAddress",
      "outputs": [],
      "stateMutability": "nonpayable",
      "type": "function"
    },
    {
      "inputs": [
        {
          "internalType": "address payable",
          "name": "newAddress",
          "type": "address"
        }
      ],
      "name": "setPartnersAndAdvisorsTokenWallet",
      "outputs": [
        {
          "internalType": "address",
          "name": "",
          "type": "address"
        }
      ],
      "stateMutability": "nonpayable",
      "type": "function"
    },
    {
      "inputs": [
        {
          "internalType": "address payable",
          "name": "newAddress",
          "type": "address"
        }
      ],
      "name": "setPresaleTokenWallet",
      "outputs": [
        {
          "internalType": "address",
          "name": "",
          "type": "address"
        }
      ],
      "stateMutability": "nonpayable",
      "type": "function"
    },
    {
      "inputs": [
        {
          "internalType": "address payable",
          "name": "newAddress",
          "type": "address"
        }
      ],
      "name": "setTeamTokenWallet",
      "outputs": [
        {
          "internalType": "address",
          "name": "",
          "type": "address"
        }
      ],
      "stateMutability": "nonpayable",
      "type": "function"
    },
    {
      "inputs": [
        {
          "internalType": "uint8",
          "name": "_walletsLimit",
          "type": "uint8"
        }
      ],
      "name": "setWalletsLimit",
      "outputs": [],
      "stateMutability": "nonpayable",
      "type": "function"
    },
    {
      "inputs": [],
      "name": "symbol",
      "outputs": [
        {
          "internalType": "string",
          "name": "",
          "type": "string"
        }
      ],
      "stateMutability": "view",
      "type": "function"
    },
    {
      "inputs": [],
      "name": "teamTokenWallet",
      "outputs": [
        {
          "internalType": "address payable",
          "name": "",
          "type": "address"
        }
      ],
      "stateMutability": "view",
      "type": "function"
    },
    {
      "inputs": [],
      "name": "totalSupply",
      "outputs": [
        {
          "internalType": "uint256",
          "name": "",
          "type": "uint256"
        }
      ],
      "stateMutability": "view",
      "type": "function"
    },
    {
      "inputs": [
        {
          "internalType": "address",
          "name": "to",
          "type": "address"
        },
        {
          "internalType": "uint256",
          "name": "amount",
          "type": "uint256"
        }
      ],
      "name": "transfer",
      "outputs": [
        {
          "internalType": "bool",
          "name": "",
          "type": "bool"
        }
      ],
      "stateMutability": "nonpayable",
      "type": "function"
    },
    {
      "inputs": [
        {
          "internalType": "address",
          "name": "from",
          "type": "address"
        },
        {
          "internalType": "address",
          "name": "to",
          "type": "address"
        },
        {
          "internalType": "uint256",
          "name": "amount",
          "type": "uint256"
        }
      ],
      "name": "transferFrom",
      "outputs": [
        {
          "internalType": "bool",
          "name": "",
          "type": "bool"
        }
      ],
      "stateMutability": "nonpayable",
      "type": "function"
    },
    {
      "inputs": [
        {
          "internalType": "address",
          "name": "newOwner",
          "type": "address"
        }
      ],
      "name": "transferOwnership",
      "outputs": [],
      "stateMutability": "nonpayable",
      "type": "function"
    },
    {
      "inputs": [
        {
          "internalType": "address",
          "name": "to",
          "type": "address"
        },
        {
          "internalType": "uint256",
          "name": "value",
          "type": "uint256"
        }
      ],
      "name": "transferPerTokenomics",
      "outputs": [
        {
          "internalType": "bool",
          "name": "",
          "type": "bool"
        }
      ],
      "stateMutability": "nonpayable",
      "type": "function"
    },
    {
      "inputs": [],
      "name": "txTrigger",
      "outputs": [
        {
          "internalType": "uint256",
          "name": "",
          "type": "uint256"
        }
      ],
      "stateMutability": "view",
      "type": "function"
    },
    {
      "inputs": [],
      "name": "uniswapV2Pair",
      "outputs": [
        {
          "internalType": "contract IUniswapV2Pair",
          "name": "",
          "type": "address"
        }
      ],
      "stateMutability": "view",
      "type": "function"
    },
    {
      "inputs": [],
      "name": "walletsLimit",
      "outputs": [
        {
          "internalType": "uint8",
          "name": "",
          "type": "uint8"
        }
      ],
      "stateMutability": "view",
      "type": "function"
    },
    {
      "inputs": [
        {
          "internalType": "uint256",
          "name": "amount",
          "type": "uint256"
        }
      ],
      "name": "withdraw",
      "outputs": [],
      "stateMutability": "nonpayable",
      "type": "function"
    },
    {
      "stateMutability": "payable",
      "type": "receive"
    }
  ],
  "bytecode": "0x6101606040526000601460006101000a81548173ffffffffffffffffffffffffffffffffffffffff021916908373ffffffffffffffffffffffffffffffffffffffff1602179055506000601560006101000a81548173ffffffffffffffffffffffffffffffffffffffff021916908373ffffffffffffffffffffffffffffffffffffffff1602179055506000601660006101000a81548173ffffffffffffffffffffffffffffffffffffffff021916908373ffffffffffffffffffffffffffffffffffffffff1602179055506000601760006101000a81548173ffffffffffffffffffffffffffffffffffffffff021916908373ffffffffffffffffffffffffffffffffffffffff1602179055506000601860006101000a81548173ffffffffffffffffffffffffffffffffffffffff021916908373ffffffffffffffffffffffffffffffffffffffff1602179055506000601960006101000a81548173ffffffffffffffffffffffffffffffffffffffff021916908373ffffffffffffffffffffffffffffffffffffffff1602179055506000601a60006101000a81548173ffffffffffffffffffffffffffffffffffffffff021916908373ffffffffffffffffffffffffffffffffffffffff1602179055506000601b60006101000a81548173ffffffffffffffffffffffffffffffffffffffff021916908373ffffffffffffffffffffffffffffffffffffffff1602179055506000601c60006101000a81548173ffffffffffffffffffffffffffffffffffffffff021916908373ffffffffffffffffffffffffffffffffffffffff1602179055503480156200026457600080fd5b506040518060400160405280600781526020017f4554465377617000000000000000000000000000000000000000000000000000815250806040518060400160405280600181526020017f31000000000000000000000000000000000000000000000000000000000000008152506040518060400160405280600781526020017f45544653776170000000000000000000000000000000000000000000000000008152506040518060400160405280600481526020017f455446530000000000000000000000000000000000000000000000000000000081525081600390816200034f919062000a4c565b50806004908162000361919062000a4c565b50505062000384620003786200046160201b60201c565b6200046960201b60201c565b6200039a6006836200052f60201b90919060201c565b6101208181525050620003b86007826200052f60201b90919060201c565b6101408181525050818051906020012060e08181525050808051906020012061010081815250504660a08181525050620003f76200058760201b60201c565b608081815250503073ffffffffffffffffffffffffffffffffffffffff1660c08173ffffffffffffffffffffffffffffffffffffffff16815250505050506001600a819055506200045b336b033b2e3c9fd0803ce8000000620005e460201b60201c565b62000e4f565b600033905090565b6000600560009054906101000a900473ffffffffffffffffffffffffffffffffffffffff16905081600560006101000a81548173ffffffffffffffffffffffffffffffffffffffff021916908373ffffffffffffffffffffffffffffffffffffffff1602179055508173ffffffffffffffffffffffffffffffffffffffff168173ffffffffffffffffffffffffffffffffffffffff167f8be0079c531659141344cd1fd0a4f28419497f9722a3daafe3b4186f6b6457e060405160405180910390a35050565b600060208351101562000555576200054d836200075160201b60201c565b905062000581565b826200056783620007be60201b60201c565b600001908162000578919062000a4c565b5060ff60001b90505b92915050565b60007f8b73c3c69bb8fe3d512ecc4cf759cc79239f7b179b0ffacaa9a75d522b39400f60e051610100514630604051602001620005c995949392919062000ba4565b60405160208183030381529060405280519060200120905090565b600073ffffffffffffffffffffffffffffffffffffffff168273ffffffffffffffffffffffffffffffffffffffff160362000656576040517f08c379a00000000000000000000000000000000000000000000000000000000081526004016200064d9062000c62565b60405180910390fd5b6200066a60008383620007c860201b60201c565b80600260008282546200067e919062000cb3565b92505081905550806000808473ffffffffffffffffffffffffffffffffffffffff1673ffffffffffffffffffffffffffffffffffffffff168152602001908152602001600020600082825401925050819055508173ffffffffffffffffffffffffffffffffffffffff16600073ffffffffffffffffffffffffffffffffffffffff167fddf252ad1be2c89b69c2b068fc378daa952ba7f163c4a11628f55a4df523b3ef8360405162000731919062000cee565b60405180910390a36200074d60008383620007cd60201b60201c565b5050565b600080829050601f81511115620007a157826040517f305a27a900000000000000000000000000000000000000000000000000000000815260040162000798919062000d89565b60405180910390fd5b805181620007af9062000ddf565b60001c1760001b915050919050565b6000819050919050565b505050565b505050565b600081519050919050565b7f4e487b7100000000000000000000000000000000000000000000000000000000600052604160045260246000fd5b7f4e487b7100000000000000000000000000000000000000000000000000000000600052602260045260246000fd5b600060028204905060018216806200085457607f821691505b6020821081036200086a57620008696200080c565b5b50919050565b60008190508160005260206000209050919050565b60006020601f8301049050919050565b600082821b905092915050565b600060088302620008d47fffffffffffffffffffffffffffffffffffffffffffffffffffffffffffffffff8262000895565b620008e0868362000895565b95508019841693508086168417925050509392505050565b6000819050919050565b6000819050919050565b60006200092d620009276200092184620008f8565b62000902565b620008f8565b9050919050565b6000819050919050565b62000949836200090c565b62000961620009588262000934565b848454620008a2565b825550505050565b600090565b6200097862000969565b620009858184846200093e565b505050565b5b81811015620009ad57620009a16000826200096e565b6001810190506200098b565b5050565b601f821115620009fc57620009c68162000870565b620009d18462000885565b81016020851015620009e1578190505b620009f9620009f08562000885565b8301826200098a565b50505b505050565b600082821c905092915050565b600062000a216000198460080262000a01565b1980831691505092915050565b600062000a3c838362000a0e565b9150826002028217905092915050565b62000a5782620007d2565b67ffffffffffffffff81111562000a735762000a72620007dd565b5b62000a7f82546200083b565b62000a8c828285620009b1565b600060209050601f83116001811462000ac4576000841562000aaf578287015190505b62000abb858262000a2e565b86555062000b2b565b601f19841662000ad48662000870565b60005b8281101562000afe5784890151825560018201915060208501945060208101905062000ad7565b8683101562000b1e578489015162000b1a601f89168262000a0e565b8355505b6001600288020188555050505b505050505050565b6000819050919050565b62000b488162000b33565b82525050565b62000b5981620008f8565b82525050565b600073ffffffffffffffffffffffffffffffffffffffff82169050919050565b600062000b8c8262000b5f565b9050919050565b62000b9e8162000b7f565b82525050565b600060a08201905062000bbb600083018862000b3d565b62000bca602083018762000b3d565b62000bd9604083018662000b3d565b62000be8606083018562000b4e565b62000bf7608083018462000b93565b9695505050505050565b600082825260208201905092915050565b7f45524332303a206d696e7420746f20746865207a65726f206164647265737300600082015250565b600062000c4a601f8362000c01565b915062000c578262000c12565b602082019050919050565b6000602082019050818103600083015262000c7d8162000c3b565b9050919050565b7f4e487b7100000000000000000000000000000000000000000000000000000000600052601160045260246000fd5b600062000cc082620008f8565b915062000ccd83620008f8565b925082820190508082111562000ce85762000ce762000c84565b5b92915050565b600060208201905062000d05600083018462000b4e565b92915050565b60005b8381101562000d2b57808201518184015260208101905062000d0e565b60008484015250505050565b6000601f19601f8301169050919050565b600062000d5582620007d2565b62000d61818562000c01565b935062000d7381856020860162000d0b565b62000d7e8162000d37565b840191505092915050565b6000602082019050818103600083015262000da5818462000d48565b905092915050565b600081519050919050565b6000819050602082019050919050565b600062000dd6825162000b33565b80915050919050565b600062000dec8262000dad565b8262000df88462000db8565b905062000e058162000dc8565b9250602082101562000e485762000e437fffffffffffffffffffffffffffffffffffffffffffffffffffffffffffffffff8360200360080262000895565b831692505b5050919050565b60805160a05160c05160e05161010051610120516101405161442562000eaa60003960006116b40152600061168001526000612b0d01526000612aec015260006126160152600061266c0152600061269501526144256000f3fe6080604052600436106103545760003560e01c806365407358116101c6578063a9059cbb116100f7578063d886ef4611610095578063de8c35ac1161006f578063de8c35ac14610d81578063f2fde38b14610daa578063ff0d401214610dd3578063ff37f5ca14610dfe57610394565b8063d886ef4614610cee578063d9d0370a14610d19578063dd62ed3e14610d4457610394565b8063babbb78d116100d1578063babbb78d14610c34578063c380366014610c5f578063c9ebf92c14610c88578063d505accf14610cc557610394565b8063a9059cbb14610b7d578063adc5a97214610bba578063b109e0aa14610bf757610394565b80638da5cb5b1161016457806395d89b411161013e57806395d89b4114610aad578063a457c2d714610ad8578063a472f62b14610b15578063a63e04c114610b5257610394565b80638da5cb5b14610a30578063937cacf414610a5b57806393987c0c14610a8457610394565b806379cc6790116101a057806379cc67901461095c5780637ecebe001461098557806384b0196e146109c257806388e86286146109f357610394565b806365407358146108dd57806370a0823114610908578063715018a61461094557610394565b806333039d3d116102a05780634b6aba1f1161023e57806355b6ed5c1161021857806355b6ed5c1461080d5780635620ea2d1461084a57806357ffe9d0146108755780635a6a97e9146108a057610394565b80634b6aba1f146107685780634df41059146107935780635013c080146107d057610394565b8063395093511161027a57806339509351146106ac57806342966c68146106e957806344ba24c01461071257806349bd5a5e1461073d57610394565b806333039d3d1461062d5780633644e51514610658578063368f7f0d1461068357610394565b80631b2922a71161030d57806327e235e3116102e757806327e235e31461055f5780632e1a7d4d1461059c578063313ce567146105c5578063315fe560146105f057610394565b80631b2922a7146104ce5780631ec22dc5146104f957806323b872dd1461052257610394565b8063053dba961461039657806306fdde03146103d3578063095ea7b3146103fe5780630b1bbf5d1461043b57806318160ddd1461046657806318d8f32f1461049157610394565b36610394577f88a5966d370b9919b20f3e2c13ff65706f196a4e32cc2c12bf57088f88525874333460405161038a929190612f1a565b60405180910390a1005b005b3480156103a257600080fd5b506103bd60048036038101906103b89190612f86565b610e29565b6040516103ca9190612fb3565b60405180910390f35b3480156103df57600080fd5b506103e8610e9e565b6040516103f5919061305e565b60405180910390f35b34801561040a57600080fd5b50610425600480360381019061042091906130d8565b610f30565b6040516104329190613133565b60405180910390f35b34801561044757600080fd5b50610450610f53565b60405161045d919061315d565b60405180910390f35b34801561047257600080fd5b5061047b610f79565b6040516104889190613178565b60405180910390f35b34801561049d57600080fd5b506104b860048036038101906104b39190612f86565b610f83565b6040516104c59190612fb3565b60405180910390f35b3480156104da57600080fd5b506104e3610ff8565b6040516104f0919061315d565b60405180910390f35b34801561050557600080fd5b50610520600480360381019061051b9190613193565b61101e565b005b34801561052e57600080fd5b50610549600480360381019061054491906131c0565b61103f565b6040516105569190613133565b60405180910390f35b34801561056b57600080fd5b5061058660048036038101906105819190613213565b61106e565b6040516105939190613178565b60405180910390f35b3480156105a857600080fd5b506105c360048036038101906105be9190613193565b611086565b005b3480156105d157600080fd5b506105da611189565b6040516105e7919061325c565b60405180910390f35b3480156105fc57600080fd5b5061061760048036038101906106129190612f86565b611192565b6040516106249190612fb3565b60405180910390f35b34801561063957600080fd5b50610642611207565b60405161064f9190613178565b60405180910390f35b34801561066457600080fd5b5061066d611217565b60405161067a9190613290565b60405180910390f35b34801561068f57600080fd5b506106aa60048036038101906106a591906132ab565b611226565b005b3480156106b857600080fd5b506106d360048036038101906106ce91906130d8565b61130c565b6040516106e09190613133565b60405180910390f35b3480156106f557600080fd5b50610710600480360381019061070b9190613193565b611343565b005b34801561071e57600080fd5b50610727611357565b604051610734919061315d565b60405180910390f35b34801561074957600080fd5b5061075261137d565b60405161075f919061334a565b60405180910390f35b34801561077457600080fd5b5061077d6113a3565b60405161078a919061315d565b60405180910390f35b34801561079f57600080fd5b506107ba60048036038101906107b59190612f86565b6113c9565b6040516107c79190612fb3565b60405180910390f35b3480156107dc57600080fd5b506107f760048036038101906107f29190612f86565b61143e565b6040516108049190612fb3565b60405180910390f35b34801561081957600080fd5b50610834600480360381019061082f9190613365565b6114b3565b6040516108419190613178565b60405180910390f35b34801561085657600080fd5b5061085f6114d8565b60405161086c919061315d565b60405180910390f35b34801561088157600080fd5b5061088a6114fe565b604051610897919061315d565b60405180910390f35b3480156108ac57600080fd5b506108c760048036038101906108c29190612f86565b611524565b6040516108d49190612fb3565b60405180910390f35b3480156108e957600080fd5b506108f2611599565b6040516108ff9190613178565b60405180910390f35b34801561091457600080fd5b5061092f600480360381019061092a9190613213565b6115a1565b60405161093c9190613178565b60405180910390f35b34801561095157600080fd5b5061095a6115e9565b005b34801561096857600080fd5b50610983600480360381019061097e91906130d8565b6115fd565b005b34801561099157600080fd5b506109ac60048036038101906109a79190613213565b61161d565b6040516109b99190613178565b60405180910390f35b3480156109ce57600080fd5b506109d761166d565b6040516109ea979695949392919061349e565b60405180910390f35b3480156109ff57600080fd5b50610a1a6004803603810190610a159190612f86565b61176f565b604051610a279190612fb3565b60405180910390f35b348015610a3c57600080fd5b50610a456117e4565b604051610a529190612fb3565b60405180910390f35b348015610a6757600080fd5b50610a826004803603810190610a7d919061354e565b61180e565b005b348015610a9057600080fd5b50610aab6004803603810190610aa69190613193565b611901565b005b348015610ab957600080fd5b50610ac2611924565b604051610acf919061305e565b60405180910390f35b348015610ae457600080fd5b50610aff6004803603810190610afa91906130d8565b6119b6565b604051610b0c9190613133565b60405180910390f35b348015610b2157600080fd5b50610b3c6004803603810190610b3791906130d8565b611a2d565b604051610b499190613133565b60405180910390f35b348015610b5e57600080fd5b50610b67611ac5565b604051610b74919061325c565b60405180910390f35b348015610b8957600080fd5b50610ba46004803603810190610b9f91906130d8565b611ad8565b604051610bb19190613133565b60405180910390f35b348015610bc657600080fd5b50610be16004803603810190610bdc9190613213565b611afb565b604051610bee9190613133565b60405180910390f35b348015610c0357600080fd5b50610c1e6004803603810190610c199190612f86565b611b1b565b604051610c2b9190612fb3565b60405180910390f35b348015610c4057600080fd5b50610c49611b90565b604051610c56919061315d565b60405180910390f35b348015610c6b57600080fd5b50610c866004803603810190610c8191906135a7565b611bb6565b005b348015610c9457600080fd5b50610caf6004803603810190610caa9190612f86565b611ce8565b604051610cbc9190612fb3565b60405180910390f35b348015610cd157600080fd5b50610cec6004803603810190610ce79190613613565b611d5d565b005b348015610cfa57600080fd5b50610d03611e9f565b604051610d10919061315d565b60405180910390f35b348015610d2557600080fd5b50610d2e611ec5565b604051610d3b919061315d565b60405180910390f35b348015610d5057600080fd5b50610d6b6004803603810190610d669190613365565b611eeb565b604051610d789190613178565b60405180910390f35b348015610d8d57600080fd5b50610da86004803603810190610da391906136b5565b611f72565b005b348015610db657600080fd5b50610dd16004803603810190610dcc9190613213565b612025565b005b348015610ddf57600080fd5b50610de86120a8565b604051610df59190613133565b60405180910390f35b348015610e0a57600080fd5b50610e136120bb565b604051610e209190613178565b60405180910390f35b6000610e336120c1565b81601b60006101000a81548173ffffffffffffffffffffffffffffffffffffffff021916908373ffffffffffffffffffffffffffffffffffffffff160217905550601b60009054906101000a900473ffffffffffffffffffffffffffffffffffffffff169050919050565b606060038054610ead90613711565b80601f0160208091040260200160405190810160405280929190818152602001828054610ed990613711565b8015610f265780601f10610efb57610100808354040283529160200191610f26565b820191906000526020600020905b815481529060010190602001808311610f0957829003601f168201915b5050505050905090565b600080610f3b61213f565b9050610f48818585612147565b600191505092915050565b601960009054906101000a900473ffffffffffffffffffffffffffffffffffffffff1681565b6000600254905090565b6000610f8d6120c1565b81601960006101000a81548173ffffffffffffffffffffffffffffffffffffffff021916908373ffffffffffffffffffffffffffffffffffffffff160217905550601960009054906101000a900473ffffffffffffffffffffffffffffffffffffffff169050919050565b601a60009054906101000a900473ffffffffffffffffffffffffffffffffffffffff1681565b6110266120c1565b600047905080820361103b5761103a6115e9565b5b5050565b60008061104a61213f565b9050611057858285612310565b61106285858561239c565b60019150509392505050565b600b6020528060005260406000206000915090505481565b61108e6120c1565b6000479050808211156110da5781816040517fcf4791810000000000000000000000000000000000000000000000000000000081526004016110d1929190613742565b60405180910390fd5b60006110e46117e4565b73ffffffffffffffffffffffffffffffffffffffff16836040516111079061379c565b60006040518083038185875af1925050503d8060008114611144576040519150601f19603f3d011682016040523d82523d6000602084013e611149565b606091505b5050905080611184576040517f90b8ec1800000000000000000000000000000000000000000000000000000000815260040160405180910390fd5b505050565b60006012905090565b600061119c6120c1565b81601860006101000a81548173ffffffffffffffffffffffffffffffffffffffff021916908373ffffffffffffffffffffffffffffffffffffffff160217905550601860009054906101000a900473ffffffffffffffffffffffffffffffffffffffff169050919050565b6b033b2e3c9fd0803ce800000081565b6000611221612612565b905090565b61122e6120c1565b61125b30600e60029054906101000a900473ffffffffffffffffffffffffffffffffffffffff1684612147565b600e60029054906101000a900473ffffffffffffffffffffffffffffffffffffffff1673ffffffffffffffffffffffffffffffffffffffff1663f305d71982308560008030426040518863ffffffff1660e01b81526004016112c29695949392919061380d565b60606040518083038185885af11580156112e0573d6000803e3d6000fd5b50505050506040513d601f19601f820116820180604052508101906113059190613883565b5050505050565b60008061131761213f565b90506113388185856113298589611eeb565b6113339190613905565b612147565b600191505092915050565b61135461134e61213f565b826126c9565b50565b601760009054906101000a900473ffffffffffffffffffffffffffffffffffffffff1681565b601060009054906101000a900473ffffffffffffffffffffffffffffffffffffffff1681565b601c60009054906101000a900473ffffffffffffffffffffffffffffffffffffffff1681565b60006113d36120c1565b81601760006101000a81548173ffffffffffffffffffffffffffffffffffffffff021916908373ffffffffffffffffffffffffffffffffffffffff160217905550601760009054906101000a900473ffffffffffffffffffffffffffffffffffffffff169050919050565b60006114486120c1565b81601c60006101000a81548173ffffffffffffffffffffffffffffffffffffffff021916908373ffffffffffffffffffffffffffffffffffffffff160217905550601c60009054906101000a900473ffffffffffffffffffffffffffffffffffffffff169050919050565b600c602052816000526040600020602052806000526040600020600091509150505481565b601660009054906101000a900473ffffffffffffffffffffffffffffffffffffffff1681565b601460009054906101000a900473ffffffffffffffffffffffffffffffffffffffff1681565b600061152e6120c1565b81601a60006101000a81548173ffffffffffffffffffffffffffffffffffffffff021916908373ffffffffffffffffffffffffffffffffffffffff160217905550601a60009054906101000a900473ffffffffffffffffffffffffffffffffffffffff169050919050565b6317d7840081565b60008060008373ffffffffffffffffffffffffffffffffffffffff1673ffffffffffffffffffffffffffffffffffffffff168152602001908152602001600020549050919050565b6115f16120c1565b6115fb6000612896565b565b61160f8261160961213f565b83612310565b61161982826126c9565b5050565b6000611666600860008473ffffffffffffffffffffffffffffffffffffffff1673ffffffffffffffffffffffffffffffffffffffff16815260200190815260200160002061295c565b9050919050565b6000606080600080600060606116ad60067f000000000000000000000000000000000000000000000000000000000000000061296a90919063ffffffff16565b6116e160077f000000000000000000000000000000000000000000000000000000000000000061296a90919063ffffffff16565b46306000801b600067ffffffffffffffff81111561170257611701613939565b5b6040519080825280602002602001820160405280156117305781602001602082028036833780820191505090505b507f0f00000000000000000000000000000000000000000000000000000000000000959493929190965096509650965096509650965090919293949596565b60006117796120c1565b81601560006101000a81548173ffffffffffffffffffffffffffffffffffffffff021916908373ffffffffffffffffffffffffffffffffffffffff160217905550601560009054906101000a900473ffffffffffffffffffffffffffffffffffffffff169050919050565b6000600560009054906101000a900473ffffffffffffffffffffffffffffffffffffffff16905090565b6118166120c1565b60008160ff1603611853576040517f5513b0db00000000000000000000000000000000000000000000000000000000815260040160405180910390fd5b600e60009054906101000a900460ff1660ff168160ff16036118ac57806040517fba2cca470000000000000000000000000000000000000000000000000000000081526004016118a39190613999565b60405180910390fd5b80600e60006101000a81548160ff021916908360ff1602179055507ffb64dd5cb1c56a3ce4f7680d712eb3ac8baf06694c98b2a35112f190d02bf828816040516118f69190613999565b60405180910390a150565b6119096120c1565b6000479050808210156119205761191f82611343565b5b5050565b60606004805461193390613711565b80601f016020809104026020016040519081016040528092919081815260200182805461195f90613711565b80156119ac5780601f10611981576101008083540402835291602001916119ac565b820191906000526020600020905b81548152906001019060200180831161198f57829003601f168201915b5050505050905090565b6000806119c161213f565b905060006119cf8286611eeb565b905083811015611a14576040517f08c379a0000000000000000000000000000000000000000000000000000000008152600401611a0b90613a26565b60405180910390fd5b611a218286868403612147565b60019250505092915050565b60008073ffffffffffffffffffffffffffffffffffffffff168373ffffffffffffffffffffffffffffffffffffffff1603611a9d576040517f08c379a0000000000000000000000000000000000000000000000000000000008152600401611a9490613a92565b60405180910390fd5b611abb3384670de0b6b3a764000085611ab69190613ab2565b61239c565b6001905092915050565b600e60009054906101000a900460ff1681565b600080611ae361213f565b9050611af081858561239c565b600191505092915050565b60116020528060005260406000206000915054906101000a900460ff1681565b6000611b256120c1565b81601660006101000a81548173ffffffffffffffffffffffffffffffffffffffff021916908373ffffffffffffffffffffffffffffffffffffffff160217905550601660009054906101000a900473ffffffffffffffffffffffffffffffffffffffff169050919050565b601b60009054906101000a900473ffffffffffffffffffffffffffffffffffffffff1681565b611bbe6120c1565b801515601160008473ffffffffffffffffffffffffffffffffffffffff1673ffffffffffffffffffffffffffffffffffffffff16815260200190815260200160002060009054906101000a900460ff16151503611c545781816040517f7e219ac4000000000000000000000000000000000000000000000000000000008152600401611c4b929190613af4565b60405180910390fd5b80601160008473ffffffffffffffffffffffffffffffffffffffff1673ffffffffffffffffffffffffffffffffffffffff16815260200190815260200160002060006101000a81548160ff0219169083151502179055507fcb441f01c08c5009a96dcc9c11ab9f0331b7a7e41c46f27174eb6babbd2584208282604051611cdc929190613af4565b60405180910390a15050565b6000611cf26120c1565b81601460006101000a81548173ffffffffffffffffffffffffffffffffffffffff021916908373ffffffffffffffffffffffffffffffffffffffff160217905550601460009054906101000a900473ffffffffffffffffffffffffffffffffffffffff169050919050565b83421115611da0576040517f08c379a0000000000000000000000000000000000000000000000000000000008152600401611d9790613b69565b60405180910390fd5b60007f6e71edae12b1b97f4d1f60370fef10105fa2faae0126114a169c64845d6126c9888888611dcf8c612a1a565b89604051602001611de596959493929190613b89565b6040516020818303038152906040528051906020012090506000611e0882612a78565b90506000611e1882878787612a92565b90508973ffffffffffffffffffffffffffffffffffffffff168173ffffffffffffffffffffffffffffffffffffffff1614611e88576040517f08c379a0000000000000000000000000000000000000000000000000000000008152600401611e7f90613c36565b60405180910390fd5b611e938a8a8a612147565b50505050505050505050565b601860009054906101000a900473ffffffffffffffffffffffffffffffffffffffff1681565b601560009054906101000a900473ffffffffffffffffffffffffffffffffffffffff1681565b6000600160008473ffffffffffffffffffffffffffffffffffffffff1673ffffffffffffffffffffffffffffffffffffffff16815260200190815260200160002060008373ffffffffffffffffffffffffffffffffffffffff1673ffffffffffffffffffffffffffffffffffffffff16815260200190815260200160002054905092915050565b611f7a6120c1565b801515600e60019054906101000a900460ff16151503611fd157806040517fe735fab8000000000000000000000000000000000000000000000000000000008152600401611fc89190613133565b60405180910390fd5b80600e60016101000a81548160ff0219169083151502179055507f4f2ad763b89ef98b4a68a99b882b1e9caa033b89ec60294b0244e6b2ef13c5118160405161201a9190613133565b60405180910390a150565b61202d6120c1565b600073ffffffffffffffffffffffffffffffffffffffff168173ffffffffffffffffffffffffffffffffffffffff160361209c576040517f08c379a000000000000000000000000000000000000000000000000000000000815260040161209390613cc8565b60405180910390fd5b6120a581612896565b50565b600e60019054906101000a900460ff1681565b60135481565b6120c961213f565b73ffffffffffffffffffffffffffffffffffffffff166120e76117e4565b73ffffffffffffffffffffffffffffffffffffffff161461213d576040517f08c379a000000000000000000000000000000000000000000000000000000000815260040161213490613d34565b60405180910390fd5b565b600033905090565b600073ffffffffffffffffffffffffffffffffffffffff168373ffffffffffffffffffffffffffffffffffffffff16036121b6576040517f08c379a00000000000000000000000000000000000000000000000000000000081526004016121ad90613dc6565b60405180910390fd5b600073ffffffffffffffffffffffffffffffffffffffff168273ffffffffffffffffffffffffffffffffffffffff1603612225576040517f08c379a000000000000000000000000000000000000000000000000000000000815260040161221c90613e58565b60405180910390fd5b80600160008573ffffffffffffffffffffffffffffffffffffffff1673ffffffffffffffffffffffffffffffffffffffff16815260200190815260200160002060008473ffffffffffffffffffffffffffffffffffffffff1673ffffffffffffffffffffffffffffffffffffffff168152602001908152602001600020819055508173ffffffffffffffffffffffffffffffffffffffff168373ffffffffffffffffffffffffffffffffffffffff167f8c5be1e5ebec7d5bd14f71427d1e84f3dd0314c0f7b2291e5b200ac8c7c3b925836040516123039190613178565b60405180910390a3505050565b600061231c8484611eeb565b90507fffffffffffffffffffffffffffffffffffffffffffffffffffffffffffffffff81146123965781811015612388576040517f08c379a000000000000000000000000000000000000000000000000000000000815260040161237f90613ec4565b60405180910390fd5b6123958484848403612147565b5b50505050565b600073ffffffffffffffffffffffffffffffffffffffff168373ffffffffffffffffffffffffffffffffffffffff160361240b576040517f08c379a000000000000000000000000000000000000000000000000000000000815260040161240290613f56565b60405180910390fd5b600073ffffffffffffffffffffffffffffffffffffffff168273ffffffffffffffffffffffffffffffffffffffff160361247a576040517f08c379a000000000000000000000000000000000000000000000000000000000815260040161247190613fe8565b60405180910390fd5b612485838383612abd565b60008060008573ffffffffffffffffffffffffffffffffffffffff1673ffffffffffffffffffffffffffffffffffffffff1681526020019081526020016000205490508181101561250b576040517f08c379a00000000000000000000000000000000000000000000000000000000081526004016125029061407a565b60405180910390fd5b8181036000808673ffffffffffffffffffffffffffffffffffffffff1673ffffffffffffffffffffffffffffffffffffffff16815260200190815260200160002081905550816000808573ffffffffffffffffffffffffffffffffffffffff1673ffffffffffffffffffffffffffffffffffffffff168152602001908152602001600020600082825401925050819055508273ffffffffffffffffffffffffffffffffffffffff168473ffffffffffffffffffffffffffffffffffffffff167fddf252ad1be2c89b69c2b068fc378daa952ba7f163c4a11628f55a4df523b3ef846040516125f99190613178565b60405180910390a361260c848484612ac2565b50505050565b60007f000000000000000000000000000000000000000000000000000000000000000073ffffffffffffffffffffffffffffffffffffffff163073ffffffffffffffffffffffffffffffffffffffff1614801561268e57507f000000000000000000000000000000000000000000000000000000000000000046145b156126bb577f000000000000000000000000000000000000000000000000000000000000000090506126c6565b6126c3612ac7565b90505b90565b600073ffffffffffffffffffffffffffffffffffffffff168273ffffffffffffffffffffffffffffffffffffffff1603612738576040517f08c379a000000000000000000000000000000000000000000000000000000000815260040161272f9061410c565b60405180910390fd5b61274482600083612abd565b60008060008473ffffffffffffffffffffffffffffffffffffffff1673ffffffffffffffffffffffffffffffffffffffff168152602001908152602001600020549050818110156127ca576040517f08c379a00000000000000000000000000000000000000000000000000000000081526004016127c19061419e565b60405180910390fd5b8181036000808573ffffffffffffffffffffffffffffffffffffffff1673ffffffffffffffffffffffffffffffffffffffff1681526020019081526020016000208190555081600260008282540392505081905550600073ffffffffffffffffffffffffffffffffffffffff168373ffffffffffffffffffffffffffffffffffffffff167fddf252ad1be2c89b69c2b068fc378daa952ba7f163c4a11628f55a4df523b3ef8460405161287d9190613178565b60405180910390a361289183600084612ac2565b505050565b6000600560009054906101000a900473ffffffffffffffffffffffffffffffffffffffff16905081600560006101000a81548173ffffffffffffffffffffffffffffffffffffffff021916908373ffffffffffffffffffffffffffffffffffffffff1602179055508173ffffffffffffffffffffffffffffffffffffffff168173ffffffffffffffffffffffffffffffffffffffff167f8be0079c531659141344cd1fd0a4f28419497f9722a3daafe3b4186f6b6457e060405160405180910390a35050565b600081600001549050919050565b606060ff60001b83146129875761298083612b5d565b9050612a14565b81805461299390613711565b80601f01602080910402602001604051908101604052809291908181526020018280546129bf90613711565b8015612a0c5780601f106129e157610100808354040283529160200191612a0c565b820191906000526020600020905b8154815290600101906020018083116129ef57829003601f168201915b505050505090505b92915050565b600080600860008473ffffffffffffffffffffffffffffffffffffffff1673ffffffffffffffffffffffffffffffffffffffff1681526020019081526020016000209050612a678161295c565b9150612a7281612bd1565b50919050565b6000612a8b612a85612612565b83612be7565b9050919050565b6000806000612aa387878787612c28565b91509150612ab081612d0a565b8192505050949350505050565b505050565b505050565b60007f8b73c3c69bb8fe3d512ecc4cf759cc79239f7b179b0ffacaa9a75d522b39400f7f00000000000000000000000000000000000000000000000000000000000000007f00000000000000000000000000000000000000000000000000000000000000004630604051602001612b429594939291906141be565b60405160208183030381529060405280519060200120905090565b60606000612b6a83612e70565b90506000602067ffffffffffffffff811115612b8957612b88613939565b5b6040519080825280601f01601f191660200182016040528015612bbb5781602001600182028036833780820191505090505b5090508181528360208201528092505050919050565b6001816000016000828254019250508190555050565b60006040517f190100000000000000000000000000000000000000000000000000000000000081528360028201528260228201526042812091505092915050565b6000807f7fffffffffffffffffffffffffffffff5d576e7357a4501ddfe92f46681b20a08360001c1115612c63576000600391509150612d01565b600060018787878760405160008152602001604052604051612c889493929190614211565b6020604051602081039080840390855afa158015612caa573d6000803e3d6000fd5b505050602060405103519050600073ffffffffffffffffffffffffffffffffffffffff168173ffffffffffffffffffffffffffffffffffffffff1603612cf857600060019250925050612d01565b80600092509250505b94509492505050565b60006004811115612d1e57612d1d614256565b5b816004811115612d3157612d30614256565b5b0315612e6d5760016004811115612d4b57612d4a614256565b5b816004811115612d5e57612d5d614256565b5b03612d9e576040517f08c379a0000000000000000000000000000000000000000000000000000000008152600401612d95906142d1565b60405180910390fd5b60026004811115612db257612db1614256565b5b816004811115612dc557612dc4614256565b5b03612e05576040517f08c379a0000000000000000000000000000000000000000000000000000000008152600401612dfc9061433d565b60405180910390fd5b60036004811115612e1957612e18614256565b5b816004811115612e2c57612e2b614256565b5b03612e6c576040517f08c379a0000000000000000000000000000000000000000000000000000000008152600401612e63906143cf565b60405180910390fd5b5b50565b60008060ff8360001c169050601f811115612eb7576040517fb3512b0c00000000000000000000000000000000000000000000000000000000815260040160405180910390fd5b80915050919050565b600073ffffffffffffffffffffffffffffffffffffffff82169050919050565b6000612eeb82612ec0565b9050919050565b612efb81612ee0565b82525050565b6000819050919050565b612f1481612f01565b82525050565b6000604082019050612f2f6000830185612ef2565b612f3c6020830184612f0b565b9392505050565b600080fd5b6000612f5382612ec0565b9050919050565b612f6381612f48565b8114612f6e57600080fd5b50565b600081359050612f8081612f5a565b92915050565b600060208284031215612f9c57612f9b612f43565b5b6000612faa84828501612f71565b91505092915050565b6000602082019050612fc86000830184612ef2565b92915050565b600081519050919050565b600082825260208201905092915050565b60005b83811015613008578082015181840152602081019050612fed565b60008484015250505050565b6000601f19601f8301169050919050565b600061303082612fce565b61303a8185612fd9565b935061304a818560208601612fea565b61305381613014565b840191505092915050565b600060208201905081810360008301526130788184613025565b905092915050565b61308981612ee0565b811461309457600080fd5b50565b6000813590506130a681613080565b92915050565b6130b581612f01565b81146130c057600080fd5b50565b6000813590506130d2816130ac565b92915050565b600080604083850312156130ef576130ee612f43565b5b60006130fd85828601613097565b925050602061310e858286016130c3565b9150509250929050565b60008115159050919050565b61312d81613118565b82525050565b60006020820190506131486000830184613124565b92915050565b61315781612f48565b82525050565b6000602082019050613172600083018461314e565b92915050565b600060208201905061318d6000830184612f0b565b92915050565b6000602082840312156131a9576131a8612f43565b5b60006131b7848285016130c3565b91505092915050565b6000806000606084860312156131d9576131d8612f43565b5b60006131e786828701613097565b93505060206131f886828701613097565b9250506040613209868287016130c3565b9150509250925092565b60006020828403121561322957613228612f43565b5b600061323784828501613097565b91505092915050565b600060ff82169050919050565b61325681613240565b82525050565b6000602082019050613271600083018461324d565b92915050565b6000819050919050565b61328a81613277565b82525050565b60006020820190506132a56000830184613281565b92915050565b600080604083850312156132c2576132c1612f43565b5b60006132d0858286016130c3565b92505060206132e1858286016130c3565b9150509250929050565b6000819050919050565b600061331061330b61330684612ec0565b6132eb565b612ec0565b9050919050565b6000613322826132f5565b9050919050565b600061333482613317565b9050919050565b61334481613329565b82525050565b600060208201905061335f600083018461333b565b92915050565b6000806040838503121561337c5761337b612f43565b5b600061338a85828601613097565b925050602061339b85828601613097565b9150509250929050565b60007fff0000000000000000000000000000000000000000000000000000000000000082169050919050565b6133da816133a5565b82525050565b600081519050919050565b600082825260208201905092915050565b6000819050602082019050919050565b61341581612f01565b82525050565b6000613427838361340c565b60208301905092915050565b6000602082019050919050565b600061344b826133e0565b61345581856133eb565b9350613460836133fc565b8060005b83811015613491578151613478888261341b565b975061348383613433565b925050600181019050613464565b5085935050505092915050565b600060e0820190506134b3600083018a6133d1565b81810360208301526134c58189613025565b905081810360408301526134d98188613025565b90506134e86060830187612f0b565b6134f56080830186612ef2565b61350260a0830185613281565b81810360c08301526135148184613440565b905098975050505050505050565b61352b81613240565b811461353657600080fd5b50565b60008135905061354881613522565b92915050565b60006020828403121561356457613563612f43565b5b600061357284828501613539565b91505092915050565b61358481613118565b811461358f57600080fd5b50565b6000813590506135a18161357b565b92915050565b600080604083850312156135be576135bd612f43565b5b60006135cc85828601613097565b92505060206135dd85828601613592565b9150509250929050565b6135f081613277565b81146135fb57600080fd5b50565b60008135905061360d816135e7565b92915050565b600080600080600080600060e0888a03121561363257613631612f43565b5b60006136408a828b01613097565b97505060206136518a828b01613097565b96505060406136628a828b016130c3565b95505060606136738a828b016130c3565b94505060806136848a828b01613539565b93505060a06136958a828b016135fe565b92505060c06136a68a828b016135fe565b91505092959891949750929550565b6000602082840312156136cb576136ca612f43565b5b60006136d984828501613592565b91505092915050565b7f4e487b7100000000000000000000000000000000000000000000000000000000600052602260045260246000fd5b6000600282049050600182168061372957607f821691505b60208210810361373c5761373b6136e2565b5b50919050565b60006040820190506137576000830185612f0b565b6137646020830184612f0b565b9392505050565b600081905092915050565b50565b600061378660008361376b565b915061379182613776565b600082019050919050565b60006137a782613779565b9150819050919050565b6000819050919050565b60006137d66137d16137cc846137b1565b6132eb565b612f01565b9050919050565b6137e6816137bb565b82525050565b60006137f782613317565b9050919050565b613807816137ec565b82525050565b600060c0820190506138226000830189612ef2565b61382f6020830188612f0b565b61383c60408301876137dd565b61384960608301866137dd565b61385660808301856137fe565b61386360a0830184612f0b565b979650505050505050565b60008151905061387d816130ac565b92915050565b60008060006060848603121561389c5761389b612f43565b5b60006138aa8682870161386e565b93505060206138bb8682870161386e565b92505060406138cc8682870161386e565b9150509250925092565b7f4e487b7100000000000000000000000000000000000000000000000000000000600052601160045260246000fd5b600061391082612f01565b915061391b83612f01565b9250828201905080821115613933576139326138d6565b5b92915050565b7f4e487b7100000000000000000000000000000000000000000000000000000000600052604160045260246000fd5b600061398361397e61397984613240565b6132eb565b612f01565b9050919050565b61399381613968565b82525050565b60006020820190506139ae600083018461398a565b92915050565b7f45524332303a2064656372656173656420616c6c6f77616e63652062656c6f7760008201527f207a65726f000000000000000000000000000000000000000000000000000000602082015250565b6000613a10602583612fd9565b9150613a1b826139b4565b604082019050919050565b60006020820190508181036000830152613a3f81613a03565b9050919050565b7f5472616e7366657220746f20746865207a65726f206164647265737300000000600082015250565b6000613a7c601c83612fd9565b9150613a8782613a46565b602082019050919050565b60006020820190508181036000830152613aab81613a6f565b9050919050565b6000613abd82612f01565b9150613ac883612f01565b9250828202613ad681612f01565b91508282048414831517613aed57613aec6138d6565b5b5092915050565b6000604082019050613b096000830185612ef2565b613b166020830184613124565b9392505050565b7f45524332305065726d69743a206578706972656420646561646c696e65000000600082015250565b6000613b53601d83612fd9565b9150613b5e82613b1d565b602082019050919050565b60006020820190508181036000830152613b8281613b46565b9050919050565b600060c082019050613b9e6000830189613281565b613bab6020830188612ef2565b613bb86040830187612ef2565b613bc56060830186612f0b565b613bd26080830185612f0b565b613bdf60a0830184612f0b565b979650505050505050565b7f45524332305065726d69743a20696e76616c6964207369676e61747572650000600082015250565b6000613c20601e83612fd9565b9150613c2b82613bea565b602082019050919050565b60006020820190508181036000830152613c4f81613c13565b9050919050565b7f4f776e61626c653a206e6577206f776e657220697320746865207a65726f206160008201527f6464726573730000000000000000000000000000000000000000000000000000602082015250565b6000613cb2602683612fd9565b9150613cbd82613c56565b604082019050919050565b60006020820190508181036000830152613ce181613ca5565b9050919050565b7f4f776e61626c653a2063616c6c6572206973206e6f7420746865206f776e6572600082015250565b6000613d1e602083612fd9565b9150613d2982613ce8565b602082019050919050565b60006020820190508181036000830152613d4d81613d11565b9050919050565b7f45524332303a20617070726f76652066726f6d20746865207a65726f2061646460008201527f7265737300000000000000000000000000000000000000000000000000000000602082015250565b6000613db0602483612fd9565b9150613dbb82613d54565b604082019050919050565b60006020820190508181036000830152613ddf81613da3565b9050919050565b7f45524332303a20617070726f766520746f20746865207a65726f20616464726560008201527f7373000000000000000000000000000000000000000000000000000000000000602082015250565b6000613e42602283612fd9565b9150613e4d82613de6565b604082019050919050565b60006020820190508181036000830152613e7181613e35565b9050919050565b7f45524332303a20696e73756666696369656e7420616c6c6f77616e6365000000600082015250565b6000613eae601d83612fd9565b9150613eb982613e78565b602082019050919050565b60006020820190508181036000830152613edd81613ea1565b9050919050565b7f45524332303a207472616e736665722066726f6d20746865207a65726f20616460008201527f6472657373000000000000000000000000000000000000000000000000000000602082015250565b6000613f40602583612fd9565b9150613f4b82613ee4565b604082019050919050565b60006020820190508181036000830152613f6f81613f33565b9050919050565b7f45524332303a207472616e7366657220746f20746865207a65726f206164647260008201527f6573730000000000000000000000000000000000000000000000000000000000602082015250565b6000613fd2602383612fd9565b9150613fdd82613f76565b604082019050919050565b6000602082019050818103600083015261400181613fc5565b9050919050565b7f45524332303a207472616e7366657220616d6f756e742065786365656473206260008201527f616c616e63650000000000000000000000000000000000000000000000000000602082015250565b6000614064602683612fd9565b915061406f82614008565b604082019050919050565b6000602082019050818103600083015261409381614057565b9050919050565b7f45524332303a206275726e2066726f6d20746865207a65726f2061646472657360008201527f7300000000000000000000000000000000000000000000000000000000000000602082015250565b60006140f6602183612fd9565b91506141018261409a565b604082019050919050565b60006020820190508181036000830152614125816140e9565b9050919050565b7f45524332303a206275726e20616d6f756e7420657863656564732062616c616e60008201527f6365000000000000000000000000000000000000000000000000000000000000602082015250565b6000614188602283612fd9565b91506141938261412c565b604082019050919050565b600060208201905081810360008301526141b78161417b565b9050919050565b600060a0820190506141d36000830188613281565b6141e06020830187613281565b6141ed6040830186613281565b6141fa6060830185612f0b565b6142076080830184612ef2565b9695505050505050565b60006080820190506142266000830187613281565b614233602083018661324d565b6142406040830185613281565b61424d6060830184613281565b95945050505050565b7f4e487b7100000000000000000000000000000000000000000000000000000000600052602160045260246000fd5b7f45434453413a20696e76616c6964207369676e61747572650000000000000000600082015250565b60006142bb601883612fd9565b91506142c682614285565b602082019050919050565b600060208201905081810360008301526142ea816142ae565b9050919050565b7f45434453413a20696e76616c6964207369676e6174757265206c656e67746800600082015250565b6000614327601f83612fd9565b9150614332826142f1565b602082019050919050565b600060208201905081810360008301526143568161431a565b9050919050565b7f45434453413a20696e76616c6964207369676e6174757265202773272076616c60008201527f7565000000000000000000000000000000000000000000000000000000000000602082015250565b60006143b9602283612fd9565b91506143c48261435d565b604082019050919050565b600060208201905081810360008301526143e8816143ac565b905091905056fea26469706673582212204dd468c972093a47b6cb8216091e01bf8fcfd1c7c4efba01e6e09a005302e1ae64736f6c63430008180033",
  "linkReferences": {},
  "deployedLinkReferences": {}
}